{
  "_format": "hh-sol-artifact-1",
  "contractName": "ColorDropLottery",
  "sourceName": "contracts/ColorDropLottery .sol",
  "abi": [
    {
      "inputs": [
        {
          "internalType": "uint64",
          "name": "_subId",
          "type": "uint64"
        },
        {
          "internalType": "uint256",
          "name": "_depositAmount",
          "type": "uint256"
        }
      ],
      "stateMutability": "nonpayable",
      "type": "constructor"
    },
    {
      "inputs": [
        {
          "internalType": "address",
          "name": "have",
          "type": "address"
        },
        {
          "internalType": "address",
          "name": "want",
          "type": "address"
        }
      ],
      "name": "OnlyCoordinatorCanFulfill",
      "type": "error"
    },
    {
      "anonymous": false,
      "inputs": [],
      "name": "EntryClosed",
      "type": "event"
    },
    {
      "anonymous": false,
      "inputs": [
        {
          "indexed": true,
          "internalType": "address",
          "name": "player",
          "type": "address"
        },
        {
          "indexed": false,
          "internalType": "uint8",
          "name": "number",
          "type": "uint8"
        }
      ],
      "name": "GameJoined",
      "type": "event"
    },
    {
      "anonymous": false,
      "inputs": [
        {
          "indexed": false,
          "internalType": "uint256",
          "name": "newAmount",
          "type": "uint256"
        }
      ],
      "name": "MinimumDepositUpdated",
      "type": "event"
    },
    {
      "anonymous": false,
      "inputs": [
        {
          "indexed": true,
          "internalType": "address",
          "name": "player",
          "type": "address"
        },
        {
          "indexed": false,
          "internalType": "uint256",
          "name": "amount",
          "type": "uint256"
        }
      ],
      "name": "PlayersStaked",
      "type": "event"
    },
    {
      "anonymous": false,
      "inputs": [
        {
          "indexed": false,
          "internalType": "uint256",
          "name": "randomWord",
          "type": "uint256"
        }
      ],
      "name": "RandomFulfilled",
      "type": "event"
    },
    {
      "anonymous": false,
      "inputs": [
        {
          "indexed": false,
          "internalType": "uint256",
          "name": "requestId",
          "type": "uint256"
        }
      ],
      "name": "RandomRequested",
      "type": "event"
    },
    {
      "anonymous": false,
      "inputs": [],
      "name": "TimeOutTriggered",
      "type": "event"
    },
    {
      "anonymous": false,
      "inputs": [
        {
          "indexed": true,
          "internalType": "address",
          "name": "player",
          "type": "address"
        },
        {
          "indexed": false,
          "internalType": "uint256",
          "name": "amount",
          "type": "uint256"
        }
      ],
      "name": "Withdrawal",
      "type": "event"
    },
    {
      "inputs": [
        {
          "internalType": "address",
          "name": "",
          "type": "address"
        }
      ],
      "name": "balances",
      "outputs": [
        {
          "internalType": "uint256",
          "name": "",
          "type": "uint256"
        }
      ],
      "stateMutability": "view",
      "type": "function"
    },
    {
      "inputs": [],
      "name": "callbackGasLimit",
      "outputs": [
        {
          "internalType": "uint32",
          "name": "",
          "type": "uint32"
        }
      ],
      "stateMutability": "view",
      "type": "function"
    },
    {
      "inputs": [],
      "name": "checkTimeoutAndCloseEntry",
      "outputs": [],
      "stateMutability": "nonpayable",
      "type": "function"
    },
    {
      "inputs": [],
      "name": "depositToJoinGame",
      "outputs": [],
      "stateMutability": "payable",
      "type": "function"
    },
    {
      "inputs": [],
      "name": "gameActive",
      "outputs": [
        {
          "internalType": "bool",
          "name": "",
          "type": "bool"
        }
      ],
      "stateMutability": "view",
      "type": "function"
    },
    {
      "inputs": [],
      "name": "gameStartTime",
      "outputs": [
        {
          "internalType": "uint256",
          "name": "",
          "type": "uint256"
        }
      ],
      "stateMutability": "view",
      "type": "function"
    },
    {
      "inputs": [],
      "name": "getWinners",
      "outputs": [
        {
          "internalType": "address[]",
          "name": "",
          "type": "address[]"
        }
      ],
      "stateMutability": "view",
      "type": "function"
    },
    {
      "inputs": [
        {
          "internalType": "address",
          "name": "",
          "type": "address"
        }
      ],
      "name": "guesses",
      "outputs": [
        {
          "internalType": "uint8",
          "name": "",
          "type": "uint8"
        }
      ],
      "stateMutability": "view",
      "type": "function"
    },
    {
      "inputs": [
        {
          "internalType": "address",
          "name": "",
          "type": "address"
        }
      ],
      "name": "hasDeposited",
      "outputs": [
        {
          "internalType": "bool",
          "name": "",
          "type": "bool"
        }
      ],
      "stateMutability": "view",
      "type": "function"
    },
    {
      "inputs": [
        {
          "internalType": "address",
          "name": "",
          "type": "address"
        }
      ],
      "name": "hasGuessed",
      "outputs": [
        {
          "internalType": "bool",
          "name": "",
          "type": "bool"
        }
      ],
      "stateMutability": "view",
      "type": "function"
    },
    {
      "inputs": [
        {
          "internalType": "address",
          "name": "",
          "type": "address"
        }
      ],
      "name": "hasJoined",
      "outputs": [
        {
          "internalType": "bool",
          "name": "",
          "type": "bool"
        }
      ],
      "stateMutability": "view",
      "type": "function"
    },
    {
      "inputs": [
        {
          "internalType": "address",
          "name": "",
          "type": "address"
        }
      ],
      "name": "hasStaked",
      "outputs": [
        {
          "internalType": "bool",
          "name": "",
          "type": "bool"
        }
      ],
      "stateMutability": "view",
      "type": "function"
    },
    {
      "inputs": [],
      "name": "isGuessingOpen",
      "outputs": [
        {
          "internalType": "bool",
          "name": "",
          "type": "bool"
        }
      ],
      "stateMutability": "view",
      "type": "function"
    },
    {
      "inputs": [],
      "name": "lastRequestId",
      "outputs": [
        {
          "internalType": "uint256",
          "name": "",
          "type": "uint256"
        }
      ],
      "stateMutability": "view",
      "type": "function"
    },
    {
      "inputs": [],
      "name": "locked",
      "outputs": [
        {
          "internalType": "bool",
          "name": "",
          "type": "bool"
        }
      ],
      "stateMutability": "view",
      "type": "function"
    },
    {
      "inputs": [],
      "name": "max_players",
      "outputs": [
        {
          "internalType": "uint256",
          "name": "",
          "type": "uint256"
        }
      ],
      "stateMutability": "view",
      "type": "function"
    },
    {
      "inputs": [],
      "name": "min_players",
      "outputs": [
        {
          "internalType": "uint256",
          "name": "",
          "type": "uint256"
        }
      ],
      "stateMutability": "view",
      "type": "function"
    },
    {
      "inputs": [],
      "name": "minimumDepositAmount",
      "outputs": [
        {
          "internalType": "uint256",
          "name": "",
          "type": "uint256"
        }
      ],
      "stateMutability": "view",
      "type": "function"
    },
    {
      "inputs": [],
      "name": "numWords",
      "outputs": [
        {
          "internalType": "uint32",
          "name": "",
          "type": "uint32"
        }
      ],
      "stateMutability": "view",
      "type": "function"
    },
    {
      "inputs": [],
      "name": "owner",
      "outputs": [
        {
          "internalType": "address",
          "name": "",
          "type": "address"
        }
      ],
      "stateMutability": "view",
      "type": "function"
    },
    {
      "inputs": [
        {
          "internalType": "address",
          "name": "",
          "type": "address"
        }
      ],
      "name": "playerBalances",
      "outputs": [
        {
          "internalType": "uint256",
          "name": "",
          "type": "uint256"
        }
      ],
      "stateMutability": "view",
      "type": "function"
    },
    {
      "inputs": [],
      "name": "playerStake",
      "outputs": [],
      "stateMutability": "payable",
      "type": "function"
    },
    {
      "inputs": [
        {
          "internalType": "uint256",
          "name": "",
          "type": "uint256"
        }
      ],
      "name": "players",
      "outputs": [
        {
          "internalType": "address",
          "name": "",
          "type": "address"
        }
      ],
      "stateMutability": "view",
      "type": "function"
    },
    {
      "inputs": [],
      "name": "randomResult",
      "outputs": [
        {
          "internalType": "uint256",
          "name": "",
          "type": "uint256"
        }
      ],
      "stateMutability": "view",
      "type": "function"
    },
    {
      "inputs": [
        {
          "internalType": "uint256",
          "name": "requestId",
          "type": "uint256"
        },
        {
          "internalType": "uint256[]",
          "name": "randomWords",
          "type": "uint256[]"
        }
      ],
      "name": "rawFulfillRandomWords",
      "outputs": [],
      "stateMutability": "nonpayable",
      "type": "function"
    },
    {
      "inputs": [],
      "name": "requestConfirmations",
      "outputs": [
        {
          "internalType": "uint16",
          "name": "",
          "type": "uint16"
        }
      ],
      "stateMutability": "view",
      "type": "function"
    },
    {
      "inputs": [],
      "name": "requestRandomNumber",
      "outputs": [],
      "stateMutability": "nonpayable",
      "type": "function"
    },
    {
      "inputs": [],
      "name": "requiredStakeAmount",
      "outputs": [
        {
          "internalType": "uint256",
          "name": "",
          "type": "uint256"
        }
      ],
      "stateMutability": "view",
      "type": "function"
    },
    {
      "inputs": [],
      "name": "returnPlayers",
      "outputs": [
        {
          "internalType": "address[]",
          "name": "",
          "type": "address[]"
        }
      ],
      "stateMutability": "view",
      "type": "function"
    },
    {
      "inputs": [],
      "name": "stakeAmount",
      "outputs": [
        {
          "internalType": "uint256",
          "name": "",
          "type": "uint256"
        }
      ],
      "stateMutability": "view",
      "type": "function"
    },
    {
      "inputs": [
        {
          "internalType": "uint8",
          "name": "number",
          "type": "uint8"
        }
      ],
      "name": "submitGuess",
      "outputs": [],
      "stateMutability": "nonpayable",
      "type": "function"
    },
    {
      "inputs": [],
      "name": "time_out",
      "outputs": [
        {
          "internalType": "uint256",
          "name": "",
          "type": "uint256"
        }
      ],
      "stateMutability": "view",
      "type": "function"
    },
    {
      "inputs": [],
      "name": "totalStaked",
      "outputs": [
        {
          "internalType": "uint256",
          "name": "",
          "type": "uint256"
        }
      ],
      "stateMutability": "view",
      "type": "function"
    },
    {
      "inputs": [],
      "name": "totalStakers",
      "outputs": [
        {
          "internalType": "uint256",
          "name": "",
          "type": "uint256"
        }
      ],
      "stateMutability": "view",
      "type": "function"
    },
    {
      "inputs": [
        {
          "internalType": "uint256",
          "name": "_newAmount",
          "type": "uint256"
        }
      ],
      "name": "updateDepositAmount",
      "outputs": [],
      "stateMutability": "nonpayable",
      "type": "function"
    },
    {
      "inputs": [
        {
          "internalType": "uint256",
          "name": "",
          "type": "uint256"
        }
      ],
      "name": "winners",
      "outputs": [
        {
          "internalType": "address",
          "name": "",
          "type": "address"
        }
      ],
      "stateMutability": "view",
      "type": "function"
    },
    {
      "inputs": [
        {
          "internalType": "uint256",
          "name": "_withdrawal",
          "type": "uint256"
        }
      ],
      "name": "withdrawBalances",
      "outputs": [],
      "stateMutability": "payable",
      "type": "function"
    }
  ],
  "bytecode": "0x60c0604052655af3107a400060015562030d40601260146101000a81548163ffffffff021916908363ffffffff1602179055506003601260186101000a81548161ffff021916908361ffff16021790555060016012601a6101000a81548163ffffffff021916908363ffffffff16021790555034801561007e57600080fd5b5060405161362738038061362783398181016040528101906100a09190610240565b735c210ef41cd1a72de73bf76ec39637bb0d3d7bee8073ffffffffffffffffffffffffffffffffffffffff1660808173ffffffffffffffffffffffffffffffffffffffff168152505050735c210ef41cd1a72de73bf76ec39637bb0d3d7bee601260006101000a81548173ffffffffffffffffffffffffffffffffffffffff021916908373ffffffffffffffffffffffffffffffffffffffff1602179055508167ffffffffffffffff1660a08167ffffffffffffffff16815250506001600d60006101000a81548160ff0219169083151502179055508060018190555033600460006101000a81548173ffffffffffffffffffffffffffffffffffffffff021916908373ffffffffffffffffffffffffffffffffffffffff1602179055505050610280565b600080fd5b600067ffffffffffffffff82169050919050565b6101e7816101ca565b81146101f257600080fd5b50565b600081519050610204816101de565b92915050565b6000819050919050565b61021d8161020a565b811461022857600080fd5b50565b60008151905061023a81610214565b92915050565b60008060408385031215610257576102566101c5565b5b6000610265858286016101f5565b92505060206102768582860161022b565b9150509250929050565b60805160a05161337b6102ac6000396000611e4601526000818161088701526108db015261337b6000f3fe60806040526004361061021a5760003560e01c80638678a7b211610123578063c93c8f34116100ab578063e7e41f2d1161006f578063e7e41f2d14610780578063f020044f146107a9578063f2c16e6f146107d4578063f71d96cb14610811578063fc2a88c31461084e5761021a565b8063c93c8f34146106b8578063cf309012146106f5578063d472b87f14610720578063d7e965c31461074b578063df15c37e146107555761021a565b806390e9babf116100f257806390e9babf146105d1578063a101c2d3146105fa578063a2fb117514610625578063aa28574214610662578063b0fb162f1461068d5761021a565b80638678a7b214610527578063869890381461053e578063877f4e12146105695780638da5cb5b146105a65761021a565b806342619f66116101a657806360c7dc471161017557806360c7dc471461045f578063776654fd1461048a5780637b38314c146104945780637ccfd7fc146104d1578063817b1cd2146104fc5761021a565b806342619f66146103b057806349e65d32146103db5780634ef9b89c1461040657806353ed7855146104435761021a565b806327e235e3116101ed57806327e235e3146102c95780632eb401531461030657806334532b2714610343578063373958361461036e5780633ce76c77146103995761021a565b80630252b9951461021f578063080c279a1461024a5780631fe543e31461027557806324f746971461029e575b600080fd5b34801561022b57600080fd5b50610234610879565b6040516102419190612275565b60405180910390f35b34801561025657600080fd5b5061025f61087f565b60405161026c9190612275565b60405180910390f35b34801561028157600080fd5b5061029c60048036038101906102979190612429565b610885565b005b3480156102aa57600080fd5b506102b3610945565b6040516102c091906124a4565b60405180910390f35b3480156102d557600080fd5b506102f060048036038101906102eb919061251d565b61095b565b6040516102fd9190612275565b60405180910390f35b34801561031257600080fd5b5061032d6004803603810190610328919061251d565b610973565b60405161033a9190612565565b60405180910390f35b34801561034f57600080fd5b50610358610993565b6040516103659190612275565b60405180910390f35b34801561037a57600080fd5b50610383610998565b6040516103909190612565565b60405180910390f35b3480156103a557600080fd5b506103ae6109ab565b005b3480156103bc57600080fd5b506103c5610ae5565b6040516103d29190612275565b60405180910390f35b3480156103e757600080fd5b506103f0610aeb565b6040516103fd9190612275565b60405180910390f35b34801561041257600080fd5b5061042d6004803603810190610428919061251d565b610af0565b60405161043a919061259c565b60405180910390f35b61045d600480360381019061045891906125b7565b610b10565b005b34801561046b57600080fd5b50610474610d06565b6040516104819190612275565b60405180910390f35b610492610d0c565b005b3480156104a057600080fd5b506104bb60048036038101906104b6919061251d565b61106b565b6040516104c89190612275565b60405180910390f35b3480156104dd57600080fd5b506104e6611083565b6040516104f391906124a4565b60405180910390f35b34801561050857600080fd5b50610511611099565b60405161051e9190612275565b60405180910390f35b34801561053357600080fd5b5061053c61109f565b005b34801561054a57600080fd5b50610553611155565b6040516105609190612275565b60405180910390f35b34801561057557600080fd5b50610590600480360381019061058b919061251d565b61115b565b60405161059d9190612565565b60405180910390f35b3480156105b257600080fd5b506105bb61117b565b6040516105c891906125f3565b60405180910390f35b3480156105dd57600080fd5b506105f860048036038101906105f3919061263a565b6111a1565b005b34801561060657600080fd5b5061060f611461565b60405161061c9190612275565b60405180910390f35b34801561063157600080fd5b5061064c600480360381019061064791906125b7565b611467565b60405161065991906125f3565b60405180910390f35b34801561066e57600080fd5b506106776114a6565b6040516106849190612275565b60405180910390f35b34801561069957600080fd5b506106a26114ac565b6040516106af9190612684565b60405180910390f35b3480156106c457600080fd5b506106df60048036038101906106da919061251d565b6114c0565b6040516106ec9190612565565b60405180910390f35b34801561070157600080fd5b5061070a6114e0565b6040516107179190612565565b60405180910390f35b34801561072c57600080fd5b506107356114f3565b604051610742919061275d565b60405180910390f35b610753611581565b005b34801561076157600080fd5b5061076a611955565b604051610777919061275d565b60405180910390f35b34801561078c57600080fd5b506107a760048036038101906107a291906125b7565b6119e3565b005b3480156107b557600080fd5b506107be611ab4565b6040516107cb9190612565565b60405180910390f35b3480156107e057600080fd5b506107fb60048036038101906107f6919061251d565b611ac7565b6040516108089190612565565b60405180910390f35b34801561081d57600080fd5b50610838600480360381019061083391906125b7565b611ae7565b60405161084591906125f3565b60405180910390f35b34801561085a57600080fd5b50610863611b26565b6040516108709190612275565b60405180910390f35b600e5481565b60015481565b7f000000000000000000000000000000000000000000000000000000000000000073ffffffffffffffffffffffffffffffffffffffff163373ffffffffffffffffffffffffffffffffffffffff161461093757337f00000000000000000000000000000000000000000000000000000000000000006040517f1cf993f400000000000000000000000000000000000000000000000000000000815260040161092e92919061277f565b60405180910390fd5b6109418282611b2c565b5050565b601260149054906101000a900463ffffffff1681565b600a6020528060005260406000206000915090505481565b600c6020528060005260406000206000915054906101000a900460ff1681565b600281565b600f60009054906101000a900460ff1681565b60011515600d60009054906101000a900460ff16151514610a01576040517f08c379a00000000000000000000000000000000000000000000000000000000081526004016109f890612805565b60405180910390fd5b61012c600e54610a119190612854565b421015610a53576040517f08c379a0000000000000000000000000000000000000000000000000000000008152600401610a4a906128d4565b60405180910390fd5b60026005805490501015610a9c576040517f08c379a0000000000000000000000000000000000000000000000000000000008152600401610a9390612940565b60405180910390fd5b7f7284d0466035e33033537f3ba45309c13d7987b85dc198a5f0c4179d85960b2460405160405180910390a16000600d60006101000a81548160ff021916908315150217905550565b60135481565b600481565b60076020528060005260406000206000915054906101000a900460ff1681565b600460149054906101000a900460ff1615610b60576040517f08c379a0000000000000000000000000000000000000000000000000000000008152600401610b57906129ac565b60405180910390fd5b6001600460146101000a81548160ff02191690831515021790555080600b60003373ffffffffffffffffffffffffffffffffffffffff1673ffffffffffffffffffffffffffffffffffffffff168152602001908152602001600020541015610bfd576040517f08c379a0000000000000000000000000000000000000000000000000000000008152600401610bf490612a18565b60405180910390fd5b80600b60003373ffffffffffffffffffffffffffffffffffffffff1673ffffffffffffffffffffffffffffffffffffffff1681526020019081526020016000206000828254610c4c9190612a38565b925050819055503373ffffffffffffffffffffffffffffffffffffffff166108fc829081150290604051600060405180830381858888f19350505050158015610c99573d6000803e3d6000fd5b503373ffffffffffffffffffffffffffffffffffffffff167f7fcf532c15f0a6db0bd6d0e038bea71d30d808c7d98cb3bf7268a95bf5081b6582604051610ce09190612275565b60405180910390a26000600460146101000a81548160ff02191690831515021790555050565b60005481565b600d60009054906101000a900460ff1680610d2c57506000600580549050145b610d6b576040517f08c379a0000000000000000000000000000000000000000000000000000000008152600401610d6290612ab8565b60405180910390fd5b600154341015610db0576040517f08c379a0000000000000000000000000000000000000000000000000000000008152600401610da790612b24565b60405180910390fd5b600460058054905010610df8576040517f08c379a0000000000000000000000000000000000000000000000000000000008152600401610def90612b90565b60405180910390fd5b600660003373ffffffffffffffffffffffffffffffffffffffff1673ffffffffffffffffffffffffffffffffffffffff16815260200190815260200160002060009054906101000a900460ff1615610e85576040517f08c379a0000000000000000000000000000000000000000000000000000000008152600401610e7c90612bfc565b60405180910390fd5b6005339080600181540180825580915050600190039060005260206000200160009091909190916101000a81548173ffffffffffffffffffffffffffffffffffffffff021916908373ffffffffffffffffffffffffffffffffffffffff1602179055506001600660003373ffffffffffffffffffffffffffffffffffffffff1673ffffffffffffffffffffffffffffffffffffffff16815260200190815260200160002060006101000a81548160ff02191690831515021790555034600b60003373ffffffffffffffffffffffffffffffffffffffff1673ffffffffffffffffffffffffffffffffffffffff168152602001908152602001600020819055506001600860003373ffffffffffffffffffffffffffffffffffffffff1673ffffffffffffffffffffffffffffffffffffffff16815260200190815260200160002060006101000a81548160ff021916908315150217905550600160058054905003611005576001600d60006101000a81548160ff0219169083151502179055505b60026005805490500361101a5742600e819055505b3373ffffffffffffffffffffffffffffffffffffffff167f4078332e6781ea1f186e70ca5e484c2557003423a2de4a2629986e40a9d623eb60006040516110619190612c61565b60405180910390a2565b600b6020528060005260406000206000915090505481565b6012601a9054906101000a900463ffffffff1681565b60105481565b600354600580549050146110b257600080fd5b600d60009054906101000a900460ff1615611102576040517f08c379a00000000000000000000000000000000000000000000000000000000081526004016110f990612cc8565b60405180910390fd5b6002600580549050101561114b576040517f08c379a000000000000000000000000000000000000000000000000000000000815260040161114290612d34565b60405180910390fd5b611153611de0565b565b60035481565b60066020528060005260406000206000915054906101000a900460ff1681565b600460009054906101000a900473ffffffffffffffffffffffffffffffffffffffff1681565b600f60009054906101000a900460ff166111f0576040517f08c379a00000000000000000000000000000000000000000000000000000000081526004016111e790612da0565b60405180910390fd5b600960003373ffffffffffffffffffffffffffffffffffffffff1673ffffffffffffffffffffffffffffffffffffffff16815260200190815260200160002060009054906101000a900460ff1661127c576040517f08c379a000000000000000000000000000000000000000000000000000000000815260040161127390612e0c565b60405180910390fd5b600c60003373ffffffffffffffffffffffffffffffffffffffff1673ffffffffffffffffffffffffffffffffffffffff16815260200190815260200160002060009054906101000a900460ff1615611309576040517f08c379a000000000000000000000000000000000000000000000000000000000815260040161130090612e78565b60405180910390fd5b60018160ff16101580156113215750600f8160ff1611155b611360576040517f08c379a000000000000000000000000000000000000000000000000000000000815260040161135790612ee4565b60405180910390fd5b80600760003373ffffffffffffffffffffffffffffffffffffffff1673ffffffffffffffffffffffffffffffffffffffff16815260200190815260200160002060006101000a81548160ff021916908360ff1602179055506001600c60003373ffffffffffffffffffffffffffffffffffffffff1673ffffffffffffffffffffffffffffffffffffffff16815260200190815260200160002060006101000a81548160ff0219169083151502179055503373ffffffffffffffffffffffffffffffffffffffff167f4078332e6781ea1f186e70ca5e484c2557003423a2de4a2629986e40a9d623eb82604051611456919061259c565b60405180910390a250565b61012c81565b6011818154811061147757600080fd5b906000526020600020016000915054906101000a900473ffffffffffffffffffffffffffffffffffffffff1681565b60025481565b601260189054906101000a900461ffff1681565b60096020528060005260406000206000915054906101000a900460ff1681565b600460149054906101000a900460ff1681565b6060600580548060200260200160405190810160405280929190818152602001828054801561157757602002820191906000526020600020905b8160009054906101000a900473ffffffffffffffffffffffffffffffffffffffff1673ffffffffffffffffffffffffffffffffffffffff168152602001906001019080831161152d575b5050505050905090565b600860003373ffffffffffffffffffffffffffffffffffffffff1673ffffffffffffffffffffffffffffffffffffffff16815260200190815260200160002060009054906101000a900460ff1661160d576040517f08c379a000000000000000000000000000000000000000000000000000000000815260040161160490612f50565b60405180910390fd5b600960003373ffffffffffffffffffffffffffffffffffffffff1673ffffffffffffffffffffffffffffffffffffffff16815260200190815260200160002060009054906101000a900460ff161561169a576040517f08c379a000000000000000000000000000000000000000000000000000000000815260040161169190612fbc565b60405180910390fd5b600254600b60003373ffffffffffffffffffffffffffffffffffffffff1673ffffffffffffffffffffffffffffffffffffffff16815260200190815260200160002054101561171e576040517f08c379a000000000000000000000000000000000000000000000000000000000815260040161171590613028565b60405180910390fd5b6000600354036117345734600281905550611779565b6002543414611778576040517f08c379a000000000000000000000000000000000000000000000000000000000815260040161176f906130ba565b60405180910390fd5b5b6001600960003373ffffffffffffffffffffffffffffffffffffffff1673ffffffffffffffffffffffffffffffffffffffff16815260200190815260200160002060006101000a81548160ff021916908315150217905550600254600b60003373ffffffffffffffffffffffffffffffffffffffff1673ffffffffffffffffffffffffffffffffffffffff16815260200190815260200160002060008282546118229190612a38565b92505081905550346010600082825461183b9190612854565b9250508190555060036000815480929190611855906130da565b919050555060058054905060035403611884576001600f60006101000a81548160ff0219169083151502179055505b61012c600e546118949190612854565b42101580156118b05750600d60009054906101000a900460ff16155b15611905576000600d60006101000a81548160ff0219169083151502179055507f7284d0466035e33033537f3ba45309c13d7987b85dc198a5f0c4179d85960b2460405160405180910390a1611904611de0565b5b3373ffffffffffffffffffffffffffffffffffffffff167f271c52cbdfbfc17698cd8095430607919e0643fdba981f3f7e344eff652e70973460405161194b9190612275565b60405180910390a2565b606060118054806020026020016040519081016040528092919081815260200182805480156119d957602002820191906000526020600020905b8160009054906101000a900473ffffffffffffffffffffffffffffffffffffffff1673ffffffffffffffffffffffffffffffffffffffff168152602001906001019080831161198f575b5050505050905090565b600460009054906101000a900473ffffffffffffffffffffffffffffffffffffffff1673ffffffffffffffffffffffffffffffffffffffff163373ffffffffffffffffffffffffffffffffffffffff1614611a73576040517f08c379a0000000000000000000000000000000000000000000000000000000008152600401611a6a90613194565b60405180910390fd5b806001819055507fd939191be6b640bc40ef7c6a17554ac82dfea02602fcacfad13dcd71d0abe6d081604051611aa99190612275565b60405180910390a150565b600d60009054906101000a900460ff1681565b60086020528060005260406000206000915054906101000a900460ff1681565b60058181548110611af757600080fd5b906000526020600020016000915054906101000a900473ffffffffffffffffffffffffffffffffffffffff1681565b60145481565b6001600f82600081518110611b4457611b436131b4565b5b6020026020010151611b569190613212565b611b609190612854565b6013819055507f79518eb4b6f70742e6651b03a2ac2bc644ea2613e8de56247857c5be5fc2a0ba601354604051611b979190612275565b60405180910390a16000805b600580549050811015611d03576013546007600060058481548110611bcb57611bca6131b4565b5b9060005260206000200160009054906101000a900473ffffffffffffffffffffffffffffffffffffffff1673ffffffffffffffffffffffffffffffffffffffff1673ffffffffffffffffffffffffffffffffffffffff16815260200190815260200160002060009054906101000a900460ff1660ff1603611cf657601160058281548110611c5c57611c5b6131b4565b5b9060005260206000200160009054906101000a900473ffffffffffffffffffffffffffffffffffffffff169080600181540180825580915050600190039060005260206000200160009091909190916101000a81548173ffffffffffffffffffffffffffffffffffffffff021916908373ffffffffffffffffffffffffffffffffffffffff1602179055508180611cf2906130da565b9250505b8080600101915050611ba3565b506000811115611dd357600081601054611d1d9190613243565b905060005b601180549050811015611dd05781600b600060118481548110611d4857611d476131b4565b5b9060005260206000200160009054906101000a900473ffffffffffffffffffffffffffffffffffffffff1673ffffffffffffffffffffffffffffffffffffffff1673ffffffffffffffffffffffffffffffffffffffff1681526020019081526020016000206000828254611dbc9190612854565b925050819055508080600101915050611d22565b50505b611ddb611f42565b505050565b6000601260009054906101000a900473ffffffffffffffffffffffffffffffffffffffff1673ffffffffffffffffffffffffffffffffffffffff16635d3b1d307f9e1344a1247c8a1785d0a4681a27152bffdb43666ae5bf7d14d24a5efd44bf7160001b7f0000000000000000000000000000000000000000000000000000000000000000601260189054906101000a900461ffff16601260149054906101000a900463ffffffff166012601a9054906101000a900463ffffffff166040518663ffffffff1660e01b8152600401611ebc9594939291906132b0565b6020604051808303816000875af1158015611edb573d6000803e3d6000fd5b505050506040513d601f19601f82011682018060405250810190611eff9190613318565b9050806014819055507ff81446731d23d202ea16cf590daf64c6087251171612b2adde6acbef4b37580281604051611f379190612275565b60405180910390a150565b60005b6005805490508110156121a157600060058281548110611f6857611f676131b4565b5b9060005260206000200160009054906101000a900473ffffffffffffffffffffffffffffffffffffffff1690506000600960008373ffffffffffffffffffffffffffffffffffffffff1673ffffffffffffffffffffffffffffffffffffffff16815260200190815260200160002060006101000a81548160ff0219169083151502179055506000600860008373ffffffffffffffffffffffffffffffffffffffff1673ffffffffffffffffffffffffffffffffffffffff16815260200190815260200160002060006101000a81548160ff0219169083151502179055506000600c60008373ffffffffffffffffffffffffffffffffffffffff1673ffffffffffffffffffffffffffffffffffffffff16815260200190815260200160002060006101000a81548160ff0219169083151502179055506000600660008373ffffffffffffffffffffffffffffffffffffffff1673ffffffffffffffffffffffffffffffffffffffff16815260200190815260200160002060006101000a81548160ff0219169083151502179055506000600760008373ffffffffffffffffffffffffffffffffffffffff1673ffffffffffffffffffffffffffffffffffffffff16815260200190815260200160002060006101000a81548160ff021916908360ff1602179055506000600b60008373ffffffffffffffffffffffffffffffffffffffff1673ffffffffffffffffffffffffffffffffffffffff16815260200190815260200160002081905550508080600101915050611f45565b50600560006121b0919061221e565b601160006121be919061221e565b6000601081905550600060038190555060006002819055506000600e8190555060006013819055506001600d60006101000a81548160ff0219169083151502179055506000600f60006101000a81548160ff021916908315150217905550565b508054600082559060005260206000209081019061223c919061223f565b50565b5b80821115612258576000816000905550600101612240565b5090565b6000819050919050565b61226f8161225c565b82525050565b600060208201905061228a6000830184612266565b92915050565b6000604051905090565b600080fd5b600080fd5b6122ad8161225c565b81146122b857600080fd5b50565b6000813590506122ca816122a4565b92915050565b600080fd5b6000601f19601f8301169050919050565b7f4e487b7100000000000000000000000000000000000000000000000000000000600052604160045260246000fd5b61231e826122d5565b810181811067ffffffffffffffff8211171561233d5761233c6122e6565b5b80604052505050565b6000612350612290565b905061235c8282612315565b919050565b600067ffffffffffffffff82111561237c5761237b6122e6565b5b602082029050602081019050919050565b600080fd5b60006123a56123a084612361565b612346565b905080838252602082019050602084028301858111156123c8576123c761238d565b5b835b818110156123f157806123dd88826122bb565b8452602084019350506020810190506123ca565b5050509392505050565b600082601f8301126124105761240f6122d0565b5b8135612420848260208601612392565b91505092915050565b600080604083850312156124405761243f61229a565b5b600061244e858286016122bb565b925050602083013567ffffffffffffffff81111561246f5761246e61229f565b5b61247b858286016123fb565b9150509250929050565b600063ffffffff82169050919050565b61249e81612485565b82525050565b60006020820190506124b96000830184612495565b92915050565b600073ffffffffffffffffffffffffffffffffffffffff82169050919050565b60006124ea826124bf565b9050919050565b6124fa816124df565b811461250557600080fd5b50565b600081359050612517816124f1565b92915050565b6000602082840312156125335761253261229a565b5b600061254184828501612508565b91505092915050565b60008115159050919050565b61255f8161254a565b82525050565b600060208201905061257a6000830184612556565b92915050565b600060ff82169050919050565b61259681612580565b82525050565b60006020820190506125b1600083018461258d565b92915050565b6000602082840312156125cd576125cc61229a565b5b60006125db848285016122bb565b91505092915050565b6125ed816124df565b82525050565b600060208201905061260860008301846125e4565b92915050565b61261781612580565b811461262257600080fd5b50565b6000813590506126348161260e565b92915050565b6000602082840312156126505761264f61229a565b5b600061265e84828501612625565b91505092915050565b600061ffff82169050919050565b61267e81612667565b82525050565b60006020820190506126996000830184612675565b92915050565b600081519050919050565b600082825260208201905092915050565b6000819050602082019050919050565b6126d4816124df565b82525050565b60006126e683836126cb565b60208301905092915050565b6000602082019050919050565b600061270a8261269f565b61271481856126aa565b935061271f836126bb565b8060005b8381101561275057815161273788826126da565b9750612742836126f2565b925050600181019050612723565b5085935050505092915050565b6000602082019050818103600083015261277781846126ff565b905092915050565b600060408201905061279460008301856125e4565b6127a160208301846125e4565b9392505050565b600082825260208201905092915050565b7f5468652067616d652068617320656e6465640000000000000000000000000000600082015250565b60006127ef6012836127a8565b91506127fa826127b9565b602082019050919050565b6000602082019050818103600083015261281e816127e2565b9050919050565b7f4e487b7100000000000000000000000000000000000000000000000000000000600052601160045260246000fd5b600061285f8261225c565b915061286a8361225c565b925082820190508082111561288257612881612825565b5b92915050565b7f54696d65206f7574206e6f742079657420726561636865640000000000000000600082015250565b60006128be6018836127a8565b91506128c982612888565b602082019050919050565b600060208201905081810360008301526128ed816128b1565b9050919050565b7f596f752063616e277420706c6179207468652067616d6520616c6f6e65000000600082015250565b600061292a601d836127a8565b9150612935826128f4565b602082019050919050565b600060208201905081810360008301526129598161291d565b9050919050565b7f5265656e7472656e637920646574656374656400000000000000000000000000600082015250565b60006129966013836127a8565b91506129a182612960565b602082019050919050565b600060208201905081810360008301526129c581612989565b9050919050565b7f496e73756666696369656e742042616c616e6365210000000000000000000000600082015250565b6000612a026015836127a8565b9150612a0d826129cc565b602082019050919050565b60006020820190508181036000830152612a31816129f5565b9050919050565b6000612a438261225c565b9150612a4e8361225c565b9250828203905081811115612a6657612a65612825565b5b92915050565b7f47616d65206e6f7420616363657074696e6720706c6179657273000000000000600082015250565b6000612aa2601a836127a8565b9150612aad82612a6c565b602082019050919050565b60006020820190508181036000830152612ad181612a95565b9050919050565b7f496e76616c696420656e74727920666565000000000000000000000000000000600082015250565b6000612b0e6011836127a8565b9150612b1982612ad8565b602082019050919050565b60006020820190508181036000830152612b3d81612b01565b9050919050565b7f47616d652069732066756c6c0000000000000000000000000000000000000000600082015250565b6000612b7a600c836127a8565b9150612b8582612b44565b602082019050919050565b60006020820190508181036000830152612ba981612b6d565b9050919050565b7f596f7527766520616c7265616479206a6f696e65640000000000000000000000600082015250565b6000612be66015836127a8565b9150612bf182612bb0565b602082019050919050565b60006020820190508181036000830152612c1581612bd9565b9050919050565b6000819050919050565b6000819050919050565b6000612c4b612c46612c4184612c1c565b612c26565b612580565b9050919050565b612c5b81612c30565b82525050565b6000602082019050612c766000830184612c52565b92915050565b7f47616d65207374696c6c20726563656976696e6720656e747269657300000000600082015250565b6000612cb2601c836127a8565b9150612cbd82612c7c565b602082019050919050565b60006020820190508181036000830152612ce181612ca5565b9050919050565b7f4e6f7420656e6f75676820706c61796572730000000000000000000000000000600082015250565b6000612d1e6012836127a8565b9150612d2982612ce8565b602082019050919050565b60006020820190508181036000830152612d4d81612d11565b9050919050565b7f4775657373696e67206973206e6f7420796574206f70656e0000000000000000600082015250565b6000612d8a6018836127a8565b9150612d9582612d54565b602082019050919050565b60006020820190508181036000830152612db981612d7d565b9050919050565b7f596f7520686176656e2774207374616b65642079657400000000000000000000600082015250565b6000612df66016836127a8565b9150612e0182612dc0565b602082019050919050565b60006020820190508181036000830152612e2581612de9565b9050919050565b7f596f7527766520616c7265616479206775657373656400000000000000000000600082015250565b6000612e626016836127a8565b9150612e6d82612e2c565b602082019050919050565b60006020820190508181036000830152612e9181612e55565b9050919050565b7f4e756d626572206d757374206265206265747765656e203120616e6420313500600082015250565b6000612ece601f836127a8565b9150612ed982612e98565b602082019050919050565b60006020820190508181036000830152612efd81612ec1565b9050919050565b7f596f7520686176656e2774206465706f73697465642079657400000000000000600082015250565b6000612f3a6019836127a8565b9150612f4582612f04565b602082019050919050565b60006020820190508181036000830152612f6981612f2d565b9050919050565b7f596f75206861766520616c7265616479207374616b6564000000000000000000600082015250565b6000612fa66017836127a8565b9150612fb182612f70565b602082019050919050565b60006020820190508181036000830152612fd581612f99565b9050919050565b7f496e76616c6964207374616b6520616d6f756e74000000000000000000000000600082015250565b60006130126014836127a8565b915061301d82612fdc565b602082019050919050565b6000602082019050818103600083015261304181613005565b9050919050565b7f546865207374616b6520616d6f756e742073686f756c6420626520657175616c60008201527f20666f7220616c6c207061727469636970616e74730000000000000000000000602082015250565b60006130a46035836127a8565b91506130af82613048565b604082019050919050565b600060208201905081810360008301526130d381613097565b9050919050565b60006130e58261225c565b91507fffffffffffffffffffffffffffffffffffffffffffffffffffffffffffffffff820361311757613116612825565b5b600182019050919050565b7f5468652061646d696e206f6e6c792063616e207570646174652074686520646560008201527f706f73697420616d6f756e740000000000000000000000000000000000000000602082015250565b600061317e602c836127a8565b915061318982613122565b604082019050919050565b600060208201905081810360008301526131ad81613171565b9050919050565b7f4e487b7100000000000000000000000000000000000000000000000000000000600052603260045260246000fd5b7f4e487b7100000000000000000000000000000000000000000000000000000000600052601260045260246000fd5b600061321d8261225c565b91506132288361225c565b925082613238576132376131e3565b5b828206905092915050565b600061324e8261225c565b91506132598361225c565b925082613269576132686131e3565b5b828204905092915050565b6000819050919050565b61328781613274565b82525050565b600067ffffffffffffffff82169050919050565b6132aa8161328d565b82525050565b600060a0820190506132c5600083018861327e565b6132d260208301876132a1565b6132df6040830186612675565b6132ec6060830185612495565b6132f96080830184612495565b9695505050505050565b600081519050613312816122a4565b92915050565b60006020828403121561332e5761332d61229a565b5b600061333c84828501613303565b9150509291505056fea26469706673582212204ddcea5313ef1aa10fc52dee67f3d89295db35c30f4afdb091cd46635a3700e064736f6c634300081c0033",
  "linkReferences": {},
  "deployedLinkReferences": {}
}