{
  "_format": "hh-sol-artifact-1",
  "contractName": "ColorDropLottery",
  "sourceName": "contracts/ColorDropLottery .sol",
  "abi": [
    {
      "inputs": [
        {
          "internalType": "uint64",
          "name": "_subId",
          "type": "uint64"
        },
        {
          "internalType": "uint256",
          "name": "_depositAmount",
          "type": "uint256"
        }
      ],
      "stateMutability": "nonpayable",
      "type": "constructor"
    },
    {
      "inputs": [
        {
          "internalType": "address",
          "name": "have",
          "type": "address"
        },
        {
          "internalType": "address",
          "name": "want",
          "type": "address"
        }
      ],
      "name": "OnlyCoordinatorCanFulfill",
      "type": "error"
    },
    {
      "anonymous": false,
      "inputs": [],
      "name": "EntryClosed",
      "type": "event"
    },
    {
      "anonymous": false,
      "inputs": [
        {
          "indexed": true,
          "internalType": "address",
          "name": "player",
          "type": "address"
        },
        {
          "indexed": false,
          "internalType": "uint8",
          "name": "number",
          "type": "uint8"
        }
      ],
      "name": "GameJoined",
      "type": "event"
    },
    {
      "anonymous": false,
      "inputs": [
        {
          "indexed": false,
          "internalType": "uint256",
          "name": "newAmount",
          "type": "uint256"
        }
      ],
      "name": "MinimumDepositUpdated",
      "type": "event"
    },
    {
      "anonymous": false,
      "inputs": [
        {
          "indexed": true,
          "internalType": "address",
          "name": "player",
          "type": "address"
        },
        {
          "indexed": false,
          "internalType": "uint256",
          "name": "amount",
          "type": "uint256"
        }
      ],
      "name": "PlayersStaked",
      "type": "event"
    },
    {
      "anonymous": false,
      "inputs": [
        {
          "indexed": false,
          "internalType": "uint256",
          "name": "randomWord",
          "type": "uint256"
        }
      ],
      "name": "RandomFulfilled",
      "type": "event"
    },
    {
      "anonymous": false,
      "inputs": [
        {
          "indexed": false,
          "internalType": "uint256",
          "name": "requestId",
          "type": "uint256"
        }
      ],
      "name": "RandomRequested",
      "type": "event"
    },
    {
      "anonymous": false,
      "inputs": [
        {
          "indexed": false,
          "internalType": "uint256",
          "name": "round",
          "type": "uint256"
        },
        {
          "indexed": true,
          "internalType": "address",
          "name": "owner",
          "type": "address"
        }
      ],
      "name": "RoundReset",
      "type": "event"
    },
    {
      "anonymous": false,
      "inputs": [
        {
          "indexed": false,
          "internalType": "uint256",
          "name": "round",
          "type": "uint256"
        },
        {
          "indexed": false,
          "internalType": "uint256",
          "name": "timestamp",
          "type": "uint256"
        }
      ],
      "name": "RoundReset",
      "type": "event"
    },
    {
      "anonymous": false,
      "inputs": [],
      "name": "TimeOutTriggered",
      "type": "event"
    },
    {
      "anonymous": false,
      "inputs": [
        {
          "indexed": true,
          "internalType": "address",
          "name": "player",
          "type": "address"
        },
        {
          "indexed": false,
          "internalType": "uint256",
          "name": "amount",
          "type": "uint256"
        }
      ],
      "name": "Withdrawal",
      "type": "event"
    },
    {
      "inputs": [],
      "name": "callbackGasLimit",
      "outputs": [
        {
          "internalType": "uint32",
          "name": "",
          "type": "uint32"
        }
      ],
      "stateMutability": "view",
      "type": "function"
    },
    {
      "inputs": [],
      "name": "checkTimeoutAndCloseEntry",
      "outputs": [],
      "stateMutability": "nonpayable",
      "type": "function"
    },
    {
      "inputs": [],
      "name": "depositToJoinGame",
      "outputs": [],
      "stateMutability": "payable",
      "type": "function"
    },
    {
      "inputs": [],
      "name": "gameActive",
      "outputs": [
        {
          "internalType": "bool",
          "name": "",
          "type": "bool"
        }
      ],
      "stateMutability": "view",
      "type": "function"
    },
    {
      "inputs": [],
      "name": "gameRount",
      "outputs": [
        {
          "internalType": "uint256",
          "name": "",
          "type": "uint256"
        }
      ],
      "stateMutability": "view",
      "type": "function"
    },
    {
      "inputs": [],
      "name": "gameStartTime",
      "outputs": [
        {
          "internalType": "uint256",
          "name": "",
          "type": "uint256"
        }
      ],
      "stateMutability": "view",
      "type": "function"
    },
    {
      "inputs": [],
      "name": "getWinners",
      "outputs": [
        {
          "internalType": "address[]",
          "name": "",
          "type": "address[]"
        }
      ],
      "stateMutability": "view",
      "type": "function"
    },
    {
      "inputs": [
        {
          "internalType": "address",
          "name": "",
          "type": "address"
        }
      ],
      "name": "guesses",
      "outputs": [
        {
          "internalType": "uint8",
          "name": "",
          "type": "uint8"
        }
      ],
      "stateMutability": "view",
      "type": "function"
    },
    {
      "inputs": [
        {
          "internalType": "address",
          "name": "",
          "type": "address"
        }
      ],
      "name": "hasDeposited",
      "outputs": [
        {
          "internalType": "bool",
          "name": "",
          "type": "bool"
        }
      ],
      "stateMutability": "view",
      "type": "function"
    },
    {
      "inputs": [
        {
          "internalType": "address",
          "name": "",
          "type": "address"
        }
      ],
      "name": "hasGuessed",
      "outputs": [
        {
          "internalType": "bool",
          "name": "",
          "type": "bool"
        }
      ],
      "stateMutability": "view",
      "type": "function"
    },
    {
      "inputs": [
        {
          "internalType": "address",
          "name": "",
          "type": "address"
        }
      ],
      "name": "hasJoined",
      "outputs": [
        {
          "internalType": "bool",
          "name": "",
          "type": "bool"
        }
      ],
      "stateMutability": "view",
      "type": "function"
    },
    {
      "inputs": [
        {
          "internalType": "address",
          "name": "",
          "type": "address"
        }
      ],
      "name": "hasStaked",
      "outputs": [
        {
          "internalType": "bool",
          "name": "",
          "type": "bool"
        }
      ],
      "stateMutability": "view",
      "type": "function"
    },
    {
      "inputs": [],
      "name": "isGuessingOpen",
      "outputs": [
        {
          "internalType": "bool",
          "name": "",
          "type": "bool"
        }
      ],
      "stateMutability": "view",
      "type": "function"
    },
    {
      "inputs": [],
      "name": "lastRequestId",
      "outputs": [
        {
          "internalType": "uint256",
          "name": "",
          "type": "uint256"
        }
      ],
      "stateMutability": "view",
      "type": "function"
    },
    {
      "inputs": [],
      "name": "locked",
      "outputs": [
        {
          "internalType": "bool",
          "name": "",
          "type": "bool"
        }
      ],
      "stateMutability": "view",
      "type": "function"
    },
    {
      "inputs": [],
      "name": "max_players",
      "outputs": [
        {
          "internalType": "uint256",
          "name": "",
          "type": "uint256"
        }
      ],
      "stateMutability": "view",
      "type": "function"
    },
    {
      "inputs": [],
      "name": "min_players",
      "outputs": [
        {
          "internalType": "uint256",
          "name": "",
          "type": "uint256"
        }
      ],
      "stateMutability": "view",
      "type": "function"
    },
    {
      "inputs": [],
      "name": "minimumDepositAmount",
      "outputs": [
        {
          "internalType": "uint256",
          "name": "",
          "type": "uint256"
        }
      ],
      "stateMutability": "view",
      "type": "function"
    },
    {
      "inputs": [],
      "name": "numWords",
      "outputs": [
        {
          "internalType": "uint32",
          "name": "",
          "type": "uint32"
        }
      ],
      "stateMutability": "view",
      "type": "function"
    },
    {
      "inputs": [],
      "name": "owner",
      "outputs": [
        {
          "internalType": "address",
          "name": "",
          "type": "address"
        }
      ],
      "stateMutability": "view",
      "type": "function"
    },
    {
      "inputs": [
        {
          "internalType": "address",
          "name": "",
          "type": "address"
        }
      ],
      "name": "playerBalances",
      "outputs": [
        {
          "internalType": "uint256",
          "name": "",
          "type": "uint256"
        }
      ],
      "stateMutability": "view",
      "type": "function"
    },
    {
      "inputs": [
        {
          "internalType": "uint256",
          "name": "amount",
          "type": "uint256"
        }
      ],
      "name": "playerStake",
      "outputs": [],
      "stateMutability": "nonpayable",
      "type": "function"
    },
    {
      "inputs": [
        {
          "internalType": "uint256",
          "name": "",
          "type": "uint256"
        }
      ],
      "name": "players",
      "outputs": [
        {
          "internalType": "address",
          "name": "",
          "type": "address"
        }
      ],
      "stateMutability": "view",
      "type": "function"
    },
    {
      "inputs": [],
      "name": "randomResult",
      "outputs": [
        {
          "internalType": "uint256",
          "name": "",
          "type": "uint256"
        }
      ],
      "stateMutability": "view",
      "type": "function"
    },
    {
      "inputs": [
        {
          "internalType": "uint256",
          "name": "requestId",
          "type": "uint256"
        },
        {
          "internalType": "uint256[]",
          "name": "randomWords",
          "type": "uint256[]"
        }
      ],
      "name": "rawFulfillRandomWords",
      "outputs": [],
      "stateMutability": "nonpayable",
      "type": "function"
    },
    {
      "inputs": [],
      "name": "requestConfirmations",
      "outputs": [
        {
          "internalType": "uint16",
          "name": "",
          "type": "uint16"
        }
      ],
      "stateMutability": "view",
      "type": "function"
    },
    {
      "inputs": [],
      "name": "requestRandomNumber",
      "outputs": [],
      "stateMutability": "nonpayable",
      "type": "function"
    },
    {
      "inputs": [],
      "name": "requiredStakeAmount",
      "outputs": [
        {
          "internalType": "uint256",
          "name": "",
          "type": "uint256"
        }
      ],
      "stateMutability": "view",
      "type": "function"
    },
    {
      "inputs": [],
      "name": "resetNextRound",
      "outputs": [],
      "stateMutability": "nonpayable",
      "type": "function"
    },
    {
      "inputs": [],
      "name": "returnPlayers",
      "outputs": [
        {
          "internalType": "address[]",
          "name": "",
          "type": "address[]"
        }
      ],
      "stateMutability": "view",
      "type": "function"
    },
    {
      "inputs": [],
      "name": "stakeAmount",
      "outputs": [
        {
          "internalType": "uint256",
          "name": "",
          "type": "uint256"
        }
      ],
      "stateMutability": "view",
      "type": "function"
    },
    {
      "inputs": [
        {
          "internalType": "uint8",
          "name": "number",
          "type": "uint8"
        }
      ],
      "name": "submitGuess",
      "outputs": [],
      "stateMutability": "nonpayable",
      "type": "function"
    },
    {
      "inputs": [],
      "name": "time_out",
      "outputs": [
        {
          "internalType": "uint256",
          "name": "",
          "type": "uint256"
        }
      ],
      "stateMutability": "view",
      "type": "function"
    },
    {
      "inputs": [],
      "name": "totalStaked",
      "outputs": [
        {
          "internalType": "uint256",
          "name": "",
          "type": "uint256"
        }
      ],
      "stateMutability": "view",
      "type": "function"
    },
    {
      "inputs": [],
      "name": "totalStakers",
      "outputs": [
        {
          "internalType": "uint256",
          "name": "",
          "type": "uint256"
        }
      ],
      "stateMutability": "view",
      "type": "function"
    },
    {
      "inputs": [
        {
          "internalType": "uint256",
          "name": "_newAmount",
          "type": "uint256"
        }
      ],
      "name": "updateDepositAmount",
      "outputs": [],
      "stateMutability": "nonpayable",
      "type": "function"
    },
    {
      "inputs": [
        {
          "internalType": "uint256",
          "name": "",
          "type": "uint256"
        }
      ],
      "name": "winners",
      "outputs": [
        {
          "internalType": "address",
          "name": "",
          "type": "address"
        }
      ],
      "stateMutability": "view",
      "type": "function"
    },
    {
      "inputs": [
        {
          "internalType": "uint256",
          "name": "_withdrawal",
          "type": "uint256"
        }
      ],
      "name": "withdrawBalances",
      "outputs": [],
      "stateMutability": "payable",
      "type": "function"
    }
  ],
  "bytecode": "0x60c0604052655af3107a400060015562030d40601360146101000a81548163ffffffff021916908363ffffffff1602179055506003601360186101000a81548161ffff021916908361ffff16021790555060016013601a6101000a81548163ffffffff021916908363ffffffff16021790555034801561007e57600080fd5b5060405161376d38038061376d83398181016040528101906100a09190610240565b735c210ef41cd1a72de73bf76ec39637bb0d3d7bee8073ffffffffffffffffffffffffffffffffffffffff1660808173ffffffffffffffffffffffffffffffffffffffff168152505050735c210ef41cd1a72de73bf76ec39637bb0d3d7bee601360006101000a81548173ffffffffffffffffffffffffffffffffffffffff021916908373ffffffffffffffffffffffffffffffffffffffff1602179055508167ffffffffffffffff1660a08167ffffffffffffffff16815250506001600e60006101000a81548160ff0219169083151502179055508060018190555033600460006101000a81548173ffffffffffffffffffffffffffffffffffffffff021916908373ffffffffffffffffffffffffffffffffffffffff1602179055505050610280565b600080fd5b600067ffffffffffffffff82169050919050565b6101e7816101ca565b81146101f257600080fd5b50565b600081519050610204816101de565b92915050565b6000819050919050565b61021d8161020a565b811461022857600080fd5b50565b60008151905061023a81610214565b92915050565b60008060408385031215610257576102566101c5565b5b6000610265858286016101f5565b92505060206102768582860161022b565b9150509250929050565b60805160a0516134c16102ac60003960006121fc0152600081816108b6015261090a01526134c16000f3fe6080604052600436106102255760003560e01c8063877f4e1211610123578063cf309012116100ab578063f020044f1161006f578063f020044f146107c1578063f2c16e6f146107ec578063f71d96cb14610829578063f97426b514610866578063fc2a88c31461087d57610225565b8063cf309012146106ec578063d17b208114610717578063d472b87f14610742578063df15c37e1461076d578063e7e41f2d1461079857610225565b8063a101c2d3116100f2578063a101c2d3146105f1578063a2fb11751461061c578063aa28574214610659578063b0fb162f14610684578063c93c8f34146106af57610225565b8063877f4e12146105375780638da5cb5b1461057457806390e9babf1461059f5780639a4309c9146105c857610225565b806349e65d32116101b15780637b38314c116101755780637b38314c146104625780637ccfd7fc1461049f578063817b1cd2146104ca5780638678a7b2146104f5578063869890381461050c57610225565b806349e65d32146103a95780634ef9b89c146103d457806353ed78551461041157806360c7dc471461042d578063776654fd1461045857610225565b80632eb40153116101f85780632eb40153146102d457806334532b2714610311578063373958361461033c5780633ce76c771461036757806342619f661461037e57610225565b80630252b9951461022a578063080c279a146102555780631fe543e31461028057806324f74697146102a9575b600080fd5b34801561023657600080fd5b5061023f6108a8565b60405161024c919061234f565b60405180910390f35b34801561026157600080fd5b5061026a6108ae565b604051610277919061234f565b60405180910390f35b34801561028c57600080fd5b506102a760048036038101906102a29190612503565b6108b4565b005b3480156102b557600080fd5b506102be610974565b6040516102cb919061257e565b60405180910390f35b3480156102e057600080fd5b506102fb60048036038101906102f691906125f7565b61098a565b604051610308919061263f565b60405180910390f35b34801561031d57600080fd5b506103266109aa565b604051610333919061234f565b60405180910390f35b34801561034857600080fd5b506103516109af565b60405161035e919061263f565b60405180910390f35b34801561037357600080fd5b5061037c6109c2565b005b34801561038a57600080fd5b50610393610afc565b6040516103a0919061234f565b60405180910390f35b3480156103b557600080fd5b506103be610b02565b6040516103cb919061234f565b60405180910390f35b3480156103e057600080fd5b506103fb60048036038101906103f691906125f7565b610b07565b6040516104089190612676565b60405180910390f35b61042b60048036038101906104269190612691565b610b27565b005b34801561043957600080fd5b50610442610d1d565b60405161044f919061234f565b60405180910390f35b610460610d23565b005b34801561046e57600080fd5b50610489600480360381019061048491906125f7565b611035565b604051610496919061234f565b60405180910390f35b3480156104ab57600080fd5b506104b461104d565b6040516104c1919061257e565b60405180910390f35b3480156104d657600080fd5b506104df611063565b6040516104ec919061234f565b60405180910390f35b34801561050157600080fd5b5061050a611069565b005b34801561051857600080fd5b5061052161111f565b60405161052e919061234f565b60405180910390f35b34801561054357600080fd5b5061055e600480360381019061055991906125f7565b611125565b60405161056b919061263f565b60405180910390f35b34801561058057600080fd5b50610589611145565b60405161059691906126cd565b60405180910390f35b3480156105ab57600080fd5b506105c660048036038101906105c19190612714565b61116b565b005b3480156105d457600080fd5b506105ef60048036038101906105ea9190612691565b61142b565b005b3480156105fd57600080fd5b50610606611800565b604051610613919061234f565b60405180910390f35b34801561062857600080fd5b50610643600480360381019061063e9190612691565b611806565b60405161065091906126cd565b60405180910390f35b34801561066557600080fd5b5061066e611845565b60405161067b919061234f565b60405180910390f35b34801561069057600080fd5b5061069961184b565b6040516106a6919061275e565b60405180910390f35b3480156106bb57600080fd5b506106d660048036038101906106d191906125f7565b61185f565b6040516106e3919061263f565b60405180910390f35b3480156106f857600080fd5b5061070161187f565b60405161070e919061263f565b60405180910390f35b34801561072357600080fd5b5061072c611892565b604051610739919061234f565b60405180910390f35b34801561074e57600080fd5b50610757611898565b6040516107649190612837565b60405180910390f35b34801561077957600080fd5b50610782611926565b60405161078f9190612837565b60405180910390f35b3480156107a457600080fd5b506107bf60048036038101906107ba9190612691565b6119b4565b005b3480156107cd57600080fd5b506107d6611a85565b6040516107e3919061263f565b60405180910390f35b3480156107f857600080fd5b50610813600480360381019061080e91906125f7565b611a98565b604051610820919061263f565b60405180910390f35b34801561083557600080fd5b50610850600480360381019061084b9190612691565b611ab8565b60405161085d91906126cd565b60405180910390f35b34801561087257600080fd5b5061087b611af7565b005b34801561088957600080fd5b50610892611ee4565b60405161089f919061234f565b60405180910390f35b600f5481565b60015481565b7f000000000000000000000000000000000000000000000000000000000000000073ffffffffffffffffffffffffffffffffffffffff163373ffffffffffffffffffffffffffffffffffffffff161461096657337f00000000000000000000000000000000000000000000000000000000000000006040517f1cf993f400000000000000000000000000000000000000000000000000000000815260040161095d929190612859565b60405180910390fd5b6109708282611eea565b5050565b601360149054906101000a900463ffffffff1681565b600d6020528060005260406000206000915054906101000a900460ff1681565b600281565b601060009054906101000a900460ff1681565b60011515600e60009054906101000a900460ff16151514610a18576040517f08c379a0000000000000000000000000000000000000000000000000000000008152600401610a0f906128df565b60405180910390fd5b61012c600f54610a28919061292e565b421015610a6a576040517f08c379a0000000000000000000000000000000000000000000000000000000008152600401610a61906129ae565b60405180910390fd5b60026007805490501015610ab3576040517f08c379a0000000000000000000000000000000000000000000000000000000008152600401610aaa90612a1a565b60405180910390fd5b7f7284d0466035e33033537f3ba45309c13d7987b85dc198a5f0c4179d85960b2460405160405180910390a16000600e60006101000a81548160ff021916908315150217905550565b60145481565b600481565b60096020528060005260406000206000915054906101000a900460ff1681565b600660009054906101000a900460ff1615610b77576040517f08c379a0000000000000000000000000000000000000000000000000000000008152600401610b6e90612a86565b60405180910390fd5b6001600660006101000a81548160ff02191690831515021790555080600c60003373ffffffffffffffffffffffffffffffffffffffff1673ffffffffffffffffffffffffffffffffffffffff168152602001908152602001600020541015610c14576040517f08c379a0000000000000000000000000000000000000000000000000000000008152600401610c0b90612af2565b60405180910390fd5b80600c60003373ffffffffffffffffffffffffffffffffffffffff1673ffffffffffffffffffffffffffffffffffffffff1681526020019081526020016000206000828254610c639190612b12565b925050819055503373ffffffffffffffffffffffffffffffffffffffff166108fc829081150290604051600060405180830381858888f19350505050158015610cb0573d6000803e3d6000fd5b503373ffffffffffffffffffffffffffffffffffffffff167f7fcf532c15f0a6db0bd6d0e038bea71d30d808c7d98cb3bf7268a95bf5081b6582604051610cf7919061234f565b60405180910390a26000600660006101000a81548160ff02191690831515021790555050565b60005481565b600154341015610d68576040517f08c379a0000000000000000000000000000000000000000000000000000000008152600401610d5f90612b92565b60405180910390fd5b600460078054905010610db0576040517f08c379a0000000000000000000000000000000000000000000000000000000008152600401610da790612bfe565b60405180910390fd5b600860003373ffffffffffffffffffffffffffffffffffffffff1673ffffffffffffffffffffffffffffffffffffffff16815260200190815260200160002060009054906101000a900460ff1615610e3d576040517f08c379a0000000000000000000000000000000000000000000000000000000008152600401610e3490612c6a565b60405180910390fd5b6007339080600181540180825580915050600190039060005260206000200160009091909190916101000a81548173ffffffffffffffffffffffffffffffffffffffff021916908373ffffffffffffffffffffffffffffffffffffffff1602179055506001600860003373ffffffffffffffffffffffffffffffffffffffff1673ffffffffffffffffffffffffffffffffffffffff16815260200190815260200160002060006101000a81548160ff02191690831515021790555034600c60003373ffffffffffffffffffffffffffffffffffffffff1673ffffffffffffffffffffffffffffffffffffffff1681526020019081526020016000206000828254610f47919061292e565b925050819055506001600a60003373ffffffffffffffffffffffffffffffffffffffff1673ffffffffffffffffffffffffffffffffffffffff16815260200190815260200160002060006101000a81548160ff021916908315150217905550600160078054905003610fcf576001600e60006101000a81548160ff0219169083151502179055505b600260078054905003610fe45742600f819055505b3373ffffffffffffffffffffffffffffffffffffffff167f4078332e6781ea1f186e70ca5e484c2557003423a2de4a2629986e40a9d623eb600060405161102b9190612ccf565b60405180910390a2565b600c6020528060005260406000206000915090505481565b6013601a9054906101000a900463ffffffff1681565b60115481565b6003546007805490501461107c57600080fd5b600e60009054906101000a900460ff16156110cc576040517f08c379a00000000000000000000000000000000000000000000000000000000081526004016110c390612d36565b60405180910390fd5b60026007805490501015611115576040517f08c379a000000000000000000000000000000000000000000000000000000000815260040161110c90612da2565b60405180910390fd5b61111d612196565b565b60035481565b60086020528060005260406000206000915054906101000a900460ff1681565b600460009054906101000a900473ffffffffffffffffffffffffffffffffffffffff1681565b601060009054906101000a900460ff166111ba576040517f08c379a00000000000000000000000000000000000000000000000000000000081526004016111b190612e0e565b60405180910390fd5b600b60003373ffffffffffffffffffffffffffffffffffffffff1673ffffffffffffffffffffffffffffffffffffffff16815260200190815260200160002060009054906101000a900460ff16611246576040517f08c379a000000000000000000000000000000000000000000000000000000000815260040161123d90612e7a565b60405180910390fd5b600d60003373ffffffffffffffffffffffffffffffffffffffff1673ffffffffffffffffffffffffffffffffffffffff16815260200190815260200160002060009054906101000a900460ff16156112d3576040517f08c379a00000000000000000000000000000000000000000000000000000000081526004016112ca90612ee6565b60405180910390fd5b60018160ff16101580156112eb5750600f8160ff1611155b61132a576040517f08c379a000000000000000000000000000000000000000000000000000000000815260040161132190612f52565b60405180910390fd5b80600960003373ffffffffffffffffffffffffffffffffffffffff1673ffffffffffffffffffffffffffffffffffffffff16815260200190815260200160002060006101000a81548160ff021916908360ff1602179055506001600d60003373ffffffffffffffffffffffffffffffffffffffff1673ffffffffffffffffffffffffffffffffffffffff16815260200190815260200160002060006101000a81548160ff0219169083151502179055503373ffffffffffffffffffffffffffffffffffffffff167f4078332e6781ea1f186e70ca5e484c2557003423a2de4a2629986e40a9d623eb826040516114209190612676565b60405180910390a250565b600a60003373ffffffffffffffffffffffffffffffffffffffff1673ffffffffffffffffffffffffffffffffffffffff16815260200190815260200160002060009054906101000a900460ff166114b7576040517f08c379a00000000000000000000000000000000000000000000000000000000081526004016114ae90612fbe565b60405180910390fd5b600b60003373ffffffffffffffffffffffffffffffffffffffff1673ffffffffffffffffffffffffffffffffffffffff16815260200190815260200160002060009054906101000a900460ff1615611544576040517f08c379a000000000000000000000000000000000000000000000000000000000815260040161153b9061302a565b60405180910390fd5b600254600c60003373ffffffffffffffffffffffffffffffffffffffff1673ffffffffffffffffffffffffffffffffffffffff1681526020019081526020016000205410156115c8576040517f08c379a00000000000000000000000000000000000000000000000000000000081526004016115bf90613096565b60405180910390fd5b6000600354036115de5780600281905550611623565b6002548114611622576040517f08c379a000000000000000000000000000000000000000000000000000000000815260040161161990613128565b60405180910390fd5b5b6001600b60003373ffffffffffffffffffffffffffffffffffffffff1673ffffffffffffffffffffffffffffffffffffffff16815260200190815260200160002060006101000a81548160ff021916908315150217905550600254600c60003373ffffffffffffffffffffffffffffffffffffffff1673ffffffffffffffffffffffffffffffffffffffff16815260200190815260200160002060008282546116cc9190612b12565b9250508190555080601160008282546116e5919061292e565b92505081905550600360008154809291906116ff90613148565b91905055506007805490506003540361172e576001601060006101000a81548160ff0219169083151502179055505b61012c600f5461173e919061292e565b421015801561175a5750600e60009054906101000a900460ff16155b156117af576000600e60006101000a81548160ff0219169083151502179055507f7284d0466035e33033537f3ba45309c13d7987b85dc198a5f0c4179d85960b2460405160405180910390a16117ae612196565b5b3373ffffffffffffffffffffffffffffffffffffffff167f271c52cbdfbfc17698cd8095430607919e0643fdba981f3f7e344eff652e7097826040516117f5919061234f565b60405180910390a250565b61012c81565b6012818154811061181657600080fd5b906000526020600020016000915054906101000a900473ffffffffffffffffffffffffffffffffffffffff1681565b60025481565b601360189054906101000a900461ffff1681565b600b6020528060005260406000206000915054906101000a900460ff1681565b600660009054906101000a900460ff1681565b60055481565b6060600780548060200260200160405190810160405280929190818152602001828054801561191c57602002820191906000526020600020905b8160009054906101000a900473ffffffffffffffffffffffffffffffffffffffff1673ffffffffffffffffffffffffffffffffffffffff16815260200190600101908083116118d2575b5050505050905090565b606060128054806020026020016040519081016040528092919081815260200182805480156119aa57602002820191906000526020600020905b8160009054906101000a900473ffffffffffffffffffffffffffffffffffffffff1673ffffffffffffffffffffffffffffffffffffffff1681526020019060010190808311611960575b5050505050905090565b600460009054906101000a900473ffffffffffffffffffffffffffffffffffffffff1673ffffffffffffffffffffffffffffffffffffffff163373ffffffffffffffffffffffffffffffffffffffff1614611a44576040517f08c379a0000000000000000000000000000000000000000000000000000000008152600401611a3b90613202565b60405180910390fd5b806001819055507fd939191be6b640bc40ef7c6a17554ac82dfea02602fcacfad13dcd71d0abe6d081604051611a7a919061234f565b60405180910390a150565b600e60009054906101000a900460ff1681565b600a6020528060005260406000206000915054906101000a900460ff1681565b60078181548110611ac857600080fd5b906000526020600020016000915054906101000a900473ffffffffffffffffffffffffffffffffffffffff1681565b600460009054906101000a900473ffffffffffffffffffffffffffffffffffffffff1673ffffffffffffffffffffffffffffffffffffffff163373ffffffffffffffffffffffffffffffffffffffff1614611b87576040517f08c379a0000000000000000000000000000000000000000000000000000000008152600401611b7e9061326e565b60405180910390fd5b60646007805490501115611bd0576040517f08c379a0000000000000000000000000000000000000000000000000000000008152600401611bc7906132da565b60405180910390fd5b60005b600780549050811015611dff57600060078281548110611bf657611bf56132fa565b5b9060005260206000200160009054906101000a900473ffffffffffffffffffffffffffffffffffffffff169050600b60008273ffffffffffffffffffffffffffffffffffffffff1673ffffffffffffffffffffffffffffffffffffffff16815260200190815260200160002060006101000a81549060ff0219169055600a60008273ffffffffffffffffffffffffffffffffffffffff1673ffffffffffffffffffffffffffffffffffffffff16815260200190815260200160002060006101000a81549060ff0219169055600d60008273ffffffffffffffffffffffffffffffffffffffff1673ffffffffffffffffffffffffffffffffffffffff16815260200190815260200160002060006101000a81549060ff0219169055600860008273ffffffffffffffffffffffffffffffffffffffff1673ffffffffffffffffffffffffffffffffffffffff16815260200190815260200160002060006101000a81549060ff0219169055600960008273ffffffffffffffffffffffffffffffffffffffff1673ffffffffffffffffffffffffffffffffffffffff16815260200190815260200160002060006101000a81549060ff0219169055600c60008273ffffffffffffffffffffffffffffffffffffffff1673ffffffffffffffffffffffffffffffffffffffff16815260200190815260200160002060009055508080600101915050611bd3565b5060076000611e0e91906122f8565b60126000611e1c91906122f8565b6000601181905550600060038190555060006002819055506000600f8190555060006014819055506001600e60006101000a81548160ff0219169083151502179055506000601060006101000a81548160ff02191690831515021790555060056000815480929190611e8d90613148565b91905055503373ffffffffffffffffffffffffffffffffffffffff167f8f3451e635d6305c96cc915737116033e21460fc131a55e37c6ecd7bfcba44f3600554604051611eda919061234f565b60405180910390a2565b60155481565b6001600f82600081518110611f0257611f016132fa565b5b6020026020010151611f149190613358565b611f1e919061292e565b6014819055507f79518eb4b6f70742e6651b03a2ac2bc644ea2613e8de56247857c5be5fc2a0ba601454604051611f55919061234f565b60405180910390a16000805b6007805490508110156120c1576014546009600060078481548110611f8957611f886132fa565b5b9060005260206000200160009054906101000a900473ffffffffffffffffffffffffffffffffffffffff1673ffffffffffffffffffffffffffffffffffffffff1673ffffffffffffffffffffffffffffffffffffffff16815260200190815260200160002060009054906101000a900460ff1660ff16036120b45760126007828154811061201a576120196132fa565b5b9060005260206000200160009054906101000a900473ffffffffffffffffffffffffffffffffffffffff169080600181540180825580915050600190039060005260206000200160009091909190916101000a81548173ffffffffffffffffffffffffffffffffffffffff021916908373ffffffffffffffffffffffffffffffffffffffff16021790555081806120b090613148565b9250505b8080600101915050611f61565b506000811115612191576000816011546120db9190613389565b905060005b60128054905081101561218e5781600c600060128481548110612106576121056132fa565b5b9060005260206000200160009054906101000a900473ffffffffffffffffffffffffffffffffffffffff1673ffffffffffffffffffffffffffffffffffffffff1673ffffffffffffffffffffffffffffffffffffffff168152602001908152602001600020600082825461217a919061292e565b9250508190555080806001019150506120e0565b50505b505050565b6000601360009054906101000a900473ffffffffffffffffffffffffffffffffffffffff1673ffffffffffffffffffffffffffffffffffffffff16635d3b1d307f9e1344a1247c8a1785d0a4681a27152bffdb43666ae5bf7d14d24a5efd44bf7160001b7f0000000000000000000000000000000000000000000000000000000000000000601360189054906101000a900461ffff16601360149054906101000a900463ffffffff166013601a9054906101000a900463ffffffff166040518663ffffffff1660e01b81526004016122729594939291906133f6565b6020604051808303816000875af1158015612291573d6000803e3d6000fd5b505050506040513d601f19601f820116820180604052508101906122b5919061345e565b9050806015819055507ff81446731d23d202ea16cf590daf64c6087251171612b2adde6acbef4b375802816040516122ed919061234f565b60405180910390a150565b50805460008255906000526020600020908101906123169190612319565b50565b5b8082111561233257600081600090555060010161231a565b5090565b6000819050919050565b61234981612336565b82525050565b60006020820190506123646000830184612340565b92915050565b6000604051905090565b600080fd5b600080fd5b61238781612336565b811461239257600080fd5b50565b6000813590506123a48161237e565b92915050565b600080fd5b6000601f19601f8301169050919050565b7f4e487b7100000000000000000000000000000000000000000000000000000000600052604160045260246000fd5b6123f8826123af565b810181811067ffffffffffffffff82111715612417576124166123c0565b5b80604052505050565b600061242a61236a565b905061243682826123ef565b919050565b600067ffffffffffffffff821115612456576124556123c0565b5b602082029050602081019050919050565b600080fd5b600061247f61247a8461243b565b612420565b905080838252602082019050602084028301858111156124a2576124a1612467565b5b835b818110156124cb57806124b78882612395565b8452602084019350506020810190506124a4565b5050509392505050565b600082601f8301126124ea576124e96123aa565b5b81356124fa84826020860161246c565b91505092915050565b6000806040838503121561251a57612519612374565b5b600061252885828601612395565b925050602083013567ffffffffffffffff81111561254957612548612379565b5b612555858286016124d5565b9150509250929050565b600063ffffffff82169050919050565b6125788161255f565b82525050565b6000602082019050612593600083018461256f565b92915050565b600073ffffffffffffffffffffffffffffffffffffffff82169050919050565b60006125c482612599565b9050919050565b6125d4816125b9565b81146125df57600080fd5b50565b6000813590506125f1816125cb565b92915050565b60006020828403121561260d5761260c612374565b5b600061261b848285016125e2565b91505092915050565b60008115159050919050565b61263981612624565b82525050565b60006020820190506126546000830184612630565b92915050565b600060ff82169050919050565b6126708161265a565b82525050565b600060208201905061268b6000830184612667565b92915050565b6000602082840312156126a7576126a6612374565b5b60006126b584828501612395565b91505092915050565b6126c7816125b9565b82525050565b60006020820190506126e260008301846126be565b92915050565b6126f18161265a565b81146126fc57600080fd5b50565b60008135905061270e816126e8565b92915050565b60006020828403121561272a57612729612374565b5b6000612738848285016126ff565b91505092915050565b600061ffff82169050919050565b61275881612741565b82525050565b6000602082019050612773600083018461274f565b92915050565b600081519050919050565b600082825260208201905092915050565b6000819050602082019050919050565b6127ae816125b9565b82525050565b60006127c083836127a5565b60208301905092915050565b6000602082019050919050565b60006127e482612779565b6127ee8185612784565b93506127f983612795565b8060005b8381101561282a57815161281188826127b4565b975061281c836127cc565b9250506001810190506127fd565b5085935050505092915050565b6000602082019050818103600083015261285181846127d9565b905092915050565b600060408201905061286e60008301856126be565b61287b60208301846126be565b9392505050565b600082825260208201905092915050565b7f5468652067616d652068617320656e6465640000000000000000000000000000600082015250565b60006128c9601283612882565b91506128d482612893565b602082019050919050565b600060208201905081810360008301526128f8816128bc565b9050919050565b7f4e487b7100000000000000000000000000000000000000000000000000000000600052601160045260246000fd5b600061293982612336565b915061294483612336565b925082820190508082111561295c5761295b6128ff565b5b92915050565b7f54696d65206f7574206e6f742079657420726561636865640000000000000000600082015250565b6000612998601883612882565b91506129a382612962565b602082019050919050565b600060208201905081810360008301526129c78161298b565b9050919050565b7f596f752063616e277420706c6179207468652067616d6520616c6f6e65000000600082015250565b6000612a04601d83612882565b9150612a0f826129ce565b602082019050919050565b60006020820190508181036000830152612a33816129f7565b9050919050565b7f5265656e7472656e637920646574656374656400000000000000000000000000600082015250565b6000612a70601383612882565b9150612a7b82612a3a565b602082019050919050565b60006020820190508181036000830152612a9f81612a63565b9050919050565b7f496e73756666696369656e742042616c616e6365210000000000000000000000600082015250565b6000612adc601583612882565b9150612ae782612aa6565b602082019050919050565b60006020820190508181036000830152612b0b81612acf565b9050919050565b6000612b1d82612336565b9150612b2883612336565b9250828203905081811115612b4057612b3f6128ff565b5b92915050565b7f496e76616c696420656e74727920666565000000000000000000000000000000600082015250565b6000612b7c601183612882565b9150612b8782612b46565b602082019050919050565b60006020820190508181036000830152612bab81612b6f565b9050919050565b7f47616d652069732066756c6c0000000000000000000000000000000000000000600082015250565b6000612be8600c83612882565b9150612bf382612bb2565b602082019050919050565b60006020820190508181036000830152612c1781612bdb565b9050919050565b7f596f7527766520616c7265616479206a6f696e65640000000000000000000000600082015250565b6000612c54601583612882565b9150612c5f82612c1e565b602082019050919050565b60006020820190508181036000830152612c8381612c47565b9050919050565b6000819050919050565b6000819050919050565b6000612cb9612cb4612caf84612c8a565b612c94565b61265a565b9050919050565b612cc981612c9e565b82525050565b6000602082019050612ce46000830184612cc0565b92915050565b7f47616d65207374696c6c20726563656976696e6720656e747269657300000000600082015250565b6000612d20601c83612882565b9150612d2b82612cea565b602082019050919050565b60006020820190508181036000830152612d4f81612d13565b9050919050565b7f4e6f7420656e6f75676820706c61796572730000000000000000000000000000600082015250565b6000612d8c601283612882565b9150612d9782612d56565b602082019050919050565b60006020820190508181036000830152612dbb81612d7f565b9050919050565b7f4775657373696e67206973206e6f7420796574206f70656e0000000000000000600082015250565b6000612df8601883612882565b9150612e0382612dc2565b602082019050919050565b60006020820190508181036000830152612e2781612deb565b9050919050565b7f596f7520686176656e2774207374616b65642079657400000000000000000000600082015250565b6000612e64601683612882565b9150612e6f82612e2e565b602082019050919050565b60006020820190508181036000830152612e9381612e57565b9050919050565b7f596f7527766520616c7265616479206775657373656400000000000000000000600082015250565b6000612ed0601683612882565b9150612edb82612e9a565b602082019050919050565b60006020820190508181036000830152612eff81612ec3565b9050919050565b7f4e756d626572206d757374206265206265747765656e203120616e6420313500600082015250565b6000612f3c601f83612882565b9150612f4782612f06565b602082019050919050565b60006020820190508181036000830152612f6b81612f2f565b9050919050565b7f596f7520686176656e2774206465706f73697465642079657400000000000000600082015250565b6000612fa8601983612882565b9150612fb382612f72565b602082019050919050565b60006020820190508181036000830152612fd781612f9b565b9050919050565b7f596f75206861766520616c7265616479207374616b6564000000000000000000600082015250565b6000613014601783612882565b915061301f82612fde565b602082019050919050565b6000602082019050818103600083015261304381613007565b9050919050565b7f496e76616c6964207374616b6520616d6f756e74000000000000000000000000600082015250565b6000613080601483612882565b915061308b8261304a565b602082019050919050565b600060208201905081810360008301526130af81613073565b9050919050565b7f546865207374616b6520616d6f756e742073686f756c6420626520657175616c60008201527f20666f7220616c6c207061727469636970616e74730000000000000000000000602082015250565b6000613112603583612882565b915061311d826130b6565b604082019050919050565b6000602082019050818103600083015261314181613105565b9050919050565b600061315382612336565b91507fffffffffffffffffffffffffffffffffffffffffffffffffffffffffffffffff8203613185576131846128ff565b5b600182019050919050565b7f5468652061646d696e206f6e6c792063616e207570646174652074686520646560008201527f706f73697420616d6f756e740000000000000000000000000000000000000000602082015250565b60006131ec602c83612882565b91506131f782613190565b604082019050919050565b6000602082019050818103600083015261321b816131df565b9050919050565b7f596f75277265206e6f7420746865206f776e6572000000000000000000000000600082015250565b6000613258601483612882565b915061326382613222565b602082019050919050565b600060208201905081810360008301526132878161324b565b9050919050565b7f546f6f206d616e7920706c617965727320746f20726573657400000000000000600082015250565b60006132c4601983612882565b91506132cf8261328e565b602082019050919050565b600060208201905081810360008301526132f3816132b7565b9050919050565b7f4e487b7100000000000000000000000000000000000000000000000000000000600052603260045260246000fd5b7f4e487b7100000000000000000000000000000000000000000000000000000000600052601260045260246000fd5b600061336382612336565b915061336e83612336565b92508261337e5761337d613329565b5b828206905092915050565b600061339482612336565b915061339f83612336565b9250826133af576133ae613329565b5b828204905092915050565b6000819050919050565b6133cd816133ba565b82525050565b600067ffffffffffffffff82169050919050565b6133f0816133d3565b82525050565b600060a08201905061340b60008301886133c4565b61341860208301876133e7565b613425604083018661274f565b613432606083018561256f565b61343f608083018461256f565b9695505050505050565b6000815190506134588161237e565b92915050565b60006020828403121561347457613473612374565b5b600061348284828501613449565b9150509291505056fea26469706673582212202eb09ea64d5114763580ebe7a236b1f6e22011d78ba6ca2880d6f0090e377b6c64736f6c634300081c0033",
  "linkReferences": {},
  "deployedLinkReferences": {}
}